{
  "_format": "hh-sol-artifact-1",
  "contractName": "TokenAirdrop",
  "sourceName": "contracts/TokenAirdrop.sol",
  "abi": [
    {
      "inputs": [
        {
          "internalType": "address",
          "name": "tokenAddress",
          "type": "address"
        },
        {
          "internalType": "bytes32",
          "name": "_merkleRoot",
          "type": "bytes32"
        },
        {
          "internalType": "uint256",
          "name": "_claimDeadline",
          "type": "uint256"
        }
      ],
      "stateMutability": "nonpayable",
      "type": "constructor"
    },
    {
      "anonymous": false,
      "inputs": [
        {
          "indexed": true,
          "internalType": "address",
          "name": "claimant",
          "type": "address"
        },
        {
          "indexed": false,
          "internalType": "uint256",
          "name": "amount",
          "type": "uint256"
        }
      ],
      "name": "AirdropClaimed",
      "type": "event"
    },
    {
      "anonymous": false,
      "inputs": [
        {
          "indexed": false,
          "internalType": "uint256",
          "name": "oldDeadline",
          "type": "uint256"
        },
        {
          "indexed": false,
          "internalType": "uint256",
          "name": "newDeadline",
          "type": "uint256"
        }
      ],
      "name": "DeadlineUpdated",
      "type": "event"
    },
    {
      "anonymous": false,
      "inputs": [
        {
          "indexed": false,
          "internalType": "bytes32",
          "name": "oldRoot",
          "type": "bytes32"
        },
        {
          "indexed": false,
          "internalType": "bytes32",
          "name": "newRoot",
          "type": "bytes32"
        }
      ],
      "name": "MerkleRootUpdated",
      "type": "event"
    },
    {
      "anonymous": false,
      "inputs": [
        {
          "indexed": false,
          "internalType": "address",
          "name": "account",
          "type": "address"
        }
      ],
      "name": "Paused",
      "type": "event"
    },
    {
      "anonymous": false,
      "inputs": [
        {
          "indexed": true,
          "internalType": "bytes32",
          "name": "role",
          "type": "bytes32"
        },
        {
          "indexed": true,
          "internalType": "bytes32",
          "name": "previousAdminRole",
          "type": "bytes32"
        },
        {
          "indexed": true,
          "internalType": "bytes32",
          "name": "newAdminRole",
          "type": "bytes32"
        }
      ],
      "name": "RoleAdminChanged",
      "type": "event"
    },
    {
      "anonymous": false,
      "inputs": [
        {
          "indexed": true,
          "internalType": "bytes32",
          "name": "role",
          "type": "bytes32"
        },
        {
          "indexed": true,
          "internalType": "address",
          "name": "account",
          "type": "address"
        },
        {
          "indexed": true,
          "internalType": "address",
          "name": "sender",
          "type": "address"
        }
      ],
      "name": "RoleGranted",
      "type": "event"
    },
    {
      "anonymous": false,
      "inputs": [
        {
          "indexed": true,
          "internalType": "bytes32",
          "name": "role",
          "type": "bytes32"
        },
        {
          "indexed": true,
          "internalType": "address",
          "name": "account",
          "type": "address"
        },
        {
          "indexed": true,
          "internalType": "address",
          "name": "sender",
          "type": "address"
        }
      ],
      "name": "RoleRevoked",
      "type": "event"
    },
    {
      "anonymous": false,
      "inputs": [
        {
          "indexed": true,
          "internalType": "address",
          "name": "account",
          "type": "address"
        }
      ],
      "name": "TokensPaused",
      "type": "event"
    },
    {
      "anonymous": false,
      "inputs": [
        {
          "indexed": true,
          "internalType": "address",
          "name": "to",
          "type": "address"
        },
        {
          "indexed": false,
          "internalType": "uint256",
          "name": "amount",
          "type": "uint256"
        }
      ],
      "name": "TokensRecovered",
      "type": "event"
    },
    {
      "anonymous": false,
      "inputs": [
        {
          "indexed": true,
          "internalType": "address",
          "name": "account",
          "type": "address"
        }
      ],
      "name": "TokensUnpaused",
      "type": "event"
    },
    {
      "anonymous": false,
      "inputs": [
        {
          "indexed": false,
          "internalType": "address",
          "name": "account",
          "type": "address"
        }
      ],
      "name": "Unpaused",
      "type": "event"
    },
    {
      "inputs": [],
      "name": "ADMIN_ROLE",
      "outputs": [
        {
          "internalType": "bytes32",
          "name": "",
          "type": "bytes32"
        }
      ],
      "stateMutability": "view",
      "type": "function"
    },
    {
      "inputs": [],
      "name": "DEFAULT_ADMIN_ROLE",
      "outputs": [
        {
          "internalType": "bytes32",
          "name": "",
          "type": "bytes32"
        }
      ],
      "stateMutability": "view",
      "type": "function"
    },
    {
      "inputs": [],
      "name": "PAUSER_ROLE",
      "outputs": [
        {
          "internalType": "bytes32",
          "name": "",
          "type": "bytes32"
        }
      ],
      "stateMutability": "view",
      "type": "function"
    },
    {
      "inputs": [
        {
          "internalType": "uint256",
          "name": "amount",
          "type": "uint256"
        },
        {
          "internalType": "bytes32[]",
          "name": "proof",
          "type": "bytes32[]"
        }
      ],
      "name": "claim",
      "outputs": [],
      "stateMutability": "nonpayable",
      "type": "function"
    },
    {
      "inputs": [],
      "name": "claimDeadline",
      "outputs": [
        {
          "internalType": "uint256",
          "name": "",
          "type": "uint256"
        }
      ],
      "stateMutability": "view",
      "type": "function"
    },
    {
      "inputs": [],
      "name": "getContractBalance",
      "outputs": [
        {
          "internalType": "uint256",
          "name": "",
          "type": "uint256"
        }
      ],
      "stateMutability": "view",
      "type": "function"
    },
    {
      "inputs": [
        {
          "internalType": "bytes32",
          "name": "role",
          "type": "bytes32"
        }
      ],
      "name": "getRoleAdmin",
      "outputs": [
        {
          "internalType": "bytes32",
          "name": "",
          "type": "bytes32"
        }
      ],
      "stateMutability": "view",
      "type": "function"
    },
    {
      "inputs": [
        {
          "internalType": "bytes32",
          "name": "role",
          "type": "bytes32"
        },
        {
          "internalType": "address",
          "name": "account",
          "type": "address"
        }
      ],
      "name": "grantRole",
      "outputs": [],
      "stateMutability": "nonpayable",
      "type": "function"
    },
    {
      "inputs": [
        {
          "internalType": "address",
          "name": "claimant",
          "type": "address"
        }
      ],
      "name": "hasAddressClaimed",
      "outputs": [
        {
          "internalType": "bool",
          "name": "",
          "type": "bool"
        }
      ],
      "stateMutability": "view",
      "type": "function"
    },
    {
      "inputs": [
        {
          "internalType": "address",
          "name": "",
          "type": "address"
        }
      ],
      "name": "hasClaimed",
      "outputs": [
        {
          "internalType": "bool",
          "name": "",
          "type": "bool"
        }
      ],
      "stateMutability": "view",
      "type": "function"
    },
    {
      "inputs": [
        {
          "internalType": "bytes32",
          "name": "role",
          "type": "bytes32"
        },
        {
          "internalType": "address",
          "name": "account",
          "type": "address"
        }
      ],
      "name": "hasRole",
      "outputs": [
        {
          "internalType": "bool",
          "name": "",
          "type": "bool"
        }
      ],
      "stateMutability": "view",
      "type": "function"
    },
    {
      "inputs": [],
      "name": "merkleRoot",
      "outputs": [
        {
          "internalType": "bytes32",
          "name": "",
          "type": "bytes32"
        }
      ],
      "stateMutability": "view",
      "type": "function"
    },
    {
      "inputs": [],
      "name": "pause",
      "outputs": [],
      "stateMutability": "nonpayable",
      "type": "function"
    },
    {
      "inputs": [],
      "name": "paused",
      "outputs": [
        {
          "internalType": "bool",
          "name": "",
          "type": "bool"
        }
      ],
      "stateMutability": "view",
      "type": "function"
    },
    {
      "inputs": [],
      "name": "recoverTokens",
      "outputs": [],
      "stateMutability": "nonpayable",
      "type": "function"
    },
    {
      "inputs": [
        {
          "internalType": "bytes32",
          "name": "role",
          "type": "bytes32"
        },
        {
          "internalType": "address",
          "name": "account",
          "type": "address"
        }
      ],
      "name": "renounceRole",
      "outputs": [],
      "stateMutability": "nonpayable",
      "type": "function"
    },
    {
      "inputs": [
        {
          "internalType": "bytes32",
          "name": "role",
          "type": "bytes32"
        },
        {
          "internalType": "address",
          "name": "account",
          "type": "address"
        }
      ],
      "name": "revokeRole",
      "outputs": [],
      "stateMutability": "nonpayable",
      "type": "function"
    },
    {
      "inputs": [
        {
          "internalType": "bytes4",
          "name": "interfaceId",
          "type": "bytes4"
        }
      ],
      "name": "supportsInterface",
      "outputs": [
        {
          "internalType": "bool",
          "name": "",
          "type": "bool"
        }
      ],
      "stateMutability": "view",
      "type": "function"
    },
    {
      "inputs": [],
      "name": "token",
      "outputs": [
        {
          "internalType": "contract IERC20",
          "name": "",
          "type": "address"
        }
      ],
      "stateMutability": "view",
      "type": "function"
    },
    {
      "inputs": [],
      "name": "totalClaimed",
      "outputs": [
        {
          "internalType": "uint256",
          "name": "",
          "type": "uint256"
        }
      ],
      "stateMutability": "view",
      "type": "function"
    },
    {
      "inputs": [],
      "name": "unpause",
      "outputs": [],
      "stateMutability": "nonpayable",
      "type": "function"
    },
    {
      "inputs": [
        {
          "internalType": "uint256",
          "name": "newDeadline",
          "type": "uint256"
        }
      ],
      "name": "updateDeadline",
      "outputs": [],
      "stateMutability": "nonpayable",
      "type": "function"
    },
    {
      "inputs": [
        {
          "internalType": "bytes32",
          "name": "newRoot",
          "type": "bytes32"
        }
      ],
      "name": "updateMerkleRoot",
      "outputs": [],
      "stateMutability": "nonpayable",
      "type": "function"
    }
  ],
  "bytecode": "0x60a06040523480156200001157600080fd5b50604051620031583803806200315883398181016040528101906200003791906200045f565b600180819055506000600260006101000a81548160ff021916908315150217905550600073ffffffffffffffffffffffffffffffffffffffff168373ffffffffffffffffffffffffffffffffffffffff1603620000cb576040517f08c379a0000000000000000000000000000000000000000000000000000000008152600401620000c2906200051c565b60405180910390fd5b6000801b820362000113576040517f08c379a00000000000000000000000000000000000000000000000000000000081526004016200010a906200058e565b60405180910390fd5b42811162000158576040517f08c379a00000000000000000000000000000000000000000000000000000000081526004016200014f9062000600565b60405180910390fd5b8273ffffffffffffffffffffffffffffffffffffffff1660808173ffffffffffffffffffffffffffffffffffffffff16815250508160038190555080600481905550620001af6000801b336200021c60201b60201c565b620001e17fa49807205ce4d355092ef5a8a18f56e8913cf4a201fbe287825b095693c21775336200021c60201b60201c565b620002137f65d7a28e3265b37a6474929f336521b332c1681b933f6cb9f3376673440d862a336200021c60201b60201c565b50505062000622565b6200022e82826200030d60201b60201c565b6200030957600160008084815260200190815260200160002060000160008373ffffffffffffffffffffffffffffffffffffffff1673ffffffffffffffffffffffffffffffffffffffff16815260200190815260200160002060006101000a81548160ff021916908315150217905550620002ae6200037760201b60201c565b73ffffffffffffffffffffffffffffffffffffffff168173ffffffffffffffffffffffffffffffffffffffff16837f2f8788117e7eff1d82e926ec794901d17c78024a50270940304540a733656f0d60405160405180910390a45b5050565b600080600084815260200190815260200160002060000160008373ffffffffffffffffffffffffffffffffffffffff1673ffffffffffffffffffffffffffffffffffffffff16815260200190815260200160002060009054906101000a900460ff16905092915050565b600033905090565b600080fd5b600073ffffffffffffffffffffffffffffffffffffffff82169050919050565b6000620003b18262000384565b9050919050565b620003c381620003a4565b8114620003cf57600080fd5b50565b600081519050620003e381620003b8565b92915050565b6000819050919050565b620003fe81620003e9565b81146200040a57600080fd5b50565b6000815190506200041e81620003f3565b92915050565b6000819050919050565b620004398162000424565b81146200044557600080fd5b50565b60008151905062000459816200042e565b92915050565b6000806000606084860312156200047b576200047a6200037f565b5b60006200048b86828701620003d2565b93505060206200049e868287016200040d565b9250506040620004b18682870162000448565b9150509250925092565b600082825260208201905092915050565b7f546f6b656e20616464726573732063616e6e6f74206265207a65726f00000000600082015250565b600062000504601c83620004bb565b91506200051182620004cc565b602082019050919050565b600060208201905081810360008301526200053781620004f5565b9050919050565b7f4d65726b6c6520726f6f742063616e6e6f74206265207a65726f000000000000600082015250565b600062000576601a83620004bb565b915062000583826200053e565b602082019050919050565b60006020820190508181036000830152620005a98162000567565b9050919050565b7f446561646c696e65206d75737420626520696e20746865206675747572650000600082015250565b6000620005e8601e83620004bb565b9150620005f582620005b0565b602082019050919050565b600060208201905081810360008301526200061b81620005d9565b9050919050565b608051612afe6200065a6000396000818161072d01528181610a2c01528181610cbe01528181610da20152610e850152612afe6000f3fe608060405234801561001057600080fd5b506004361061014d5760003560e01c80636f9fb98a116100c3578063a217fddf1161007c578063a217fddf14610378578063b77f39fe14610396578063d547741f146103a0578063d54ad2a1146103bc578063e63ab1e9146103da578063fc0c546a146103f85761014d565b80636f9fb98a146102a257806373b2e80e146102c057806375b238fc146102f0578063832e3f881461030e5780638456cb591461033e57806391d14854146103485761014d565b806336568abe1161011557806336568abe146102085780633ba86c44146102245780633f4ba83a1461024257806342af18841461024c5780634783f0ef146102685780635c975abb146102845761014d565b806301ffc9a714610152578063248a9ca3146101825780632eb4a7ab146101b25780632f2ff15d146101d05780632f52ebb7146101ec575b600080fd5b61016c60048036038101906101679190611a3c565b610416565b6040516101799190611a84565b60405180910390f35b61019c60048036038101906101979190611ad5565b610490565b6040516101a99190611b11565b60405180910390f35b6101ba6104af565b6040516101c79190611b11565b60405180910390f35b6101ea60048036038101906101e59190611b8a565b6104b5565b005b61020660048036038101906102019190611c65565b6104d6565b005b610222600480360381019061021d9190611b8a565b6107cd565b005b61022c610820565b6040516102399190611cd4565b60405180910390f35b61024a610826565b005b61026660048036038101906102619190611cef565b61089e565b005b610282600480360381019061027d9190611ad5565b610956565b005b61028c610a11565b6040516102999190611a84565b60405180910390f35b6102aa610a28565b6040516102b79190611cd4565b60405180910390f35b6102da60048036038101906102d59190611d1c565b610ac9565b6040516102e79190611a84565b60405180910390f35b6102f8610ae9565b6040516103059190611b11565b60405180910390f35b61032860048036038101906103239190611d1c565b610b0d565b6040516103359190611a84565b60405180910390f35b610346610b63565b005b610362600480360381019061035d9190611b8a565b610bdb565b60405161036f9190611a84565b60405180910390f35b610380610c45565b60405161038d9190611b11565b60405180910390f35b61039e610c4c565b005b6103ba60048036038101906103b59190611b8a565b610e38565b005b6103c4610e59565b6040516103d19190611cd4565b60405180910390f35b6103e2610e5f565b6040516103ef9190611b11565b60405180910390f35b610400610e83565b60405161040d9190611da8565b60405180910390f35b60007f7965db0b000000000000000000000000000000000000000000000000000000007bffffffffffffffffffffffffffffffffffffffffffffffffffffffff1916827bffffffffffffffffffffffffffffffffffffffffffffffffffffffff19161480610489575061048882610ea7565b5b9050919050565b6000806000838152602001908152602001600020600101549050919050565b60035481565b6104be82610490565b6104c781610f11565b6104d18383610f25565b505050565b6104de611005565b6104e6611054565b60045442111561052b576040517f08c379a000000000000000000000000000000000000000000000000000000000815260040161052290611e20565b60405180910390fd5b600660003373ffffffffffffffffffffffffffffffffffffffff1673ffffffffffffffffffffffffffffffffffffffff16815260200190815260200160002060009054906101000a900460ff16156105b8576040517f08c379a00000000000000000000000000000000000000000000000000000000081526004016105af90611e8c565b60405180910390fd5b600083116105fb576040517f08c379a00000000000000000000000000000000000000000000000000000000081526004016105f290611ef8565b60405180910390fd5b60003384604051602001610610929190611f81565b604051602081830303815290604052805190602001209050610676838380806020026020016040519081016040528093929190818152602001838360200280828437600081840152601f19601f820116905080830192505050505050506003548361109e565b6106b5576040517f08c379a00000000000000000000000000000000000000000000000000000000081526004016106ac90611ff9565b60405180910390fd5b6001600660003373ffffffffffffffffffffffffffffffffffffffff1673ffffffffffffffffffffffffffffffffffffffff16815260200190815260200160002060006101000a81548160ff021916908315150217905550836005600082825461071f9190612048565b9250508190555061077133857f000000000000000000000000000000000000000000000000000000000000000073ffffffffffffffffffffffffffffffffffffffff166110b59092919063ffffffff16565b3373ffffffffffffffffffffffffffffffffffffffff167f650e45f04ef8a0c267b2f78d983913f69ae3a353b2b32de5429307522be0ab55856040516107b79190611cd4565b60405180910390a2506107c861113b565b505050565b6000801b8203610812576040517f08c379a0000000000000000000000000000000000000000000000000000000008152600401610809906120c8565b60405180910390fd5b61081c8282611144565b5050565b60045481565b7f65d7a28e3265b37a6474929f336521b332c1681b933f6cb9f3376673440d862a61085081610f11565b6108586111c7565b3373ffffffffffffffffffffffffffffffffffffffff167f1d820696b02c8ad1d8ffa2ccc89c31d77790442da11e2fca218706adc0211fc860405160405180910390a250565b7fa49807205ce4d355092ef5a8a18f56e8913cf4a201fbe287825b095693c217756108c881610f11565b42821161090a576040517f08c379a000000000000000000000000000000000000000000000000000000000815260040161090190612134565b60405180910390fd5b60006004549050826004819055507fbfb1e20570acd6db936dc28292a9db9de145f981e96fcc1d2687595396f30f3d8184604051610949929190612154565b60405180910390a1505050565b7fa49807205ce4d355092ef5a8a18f56e8913cf4a201fbe287825b095693c2177561098081610f11565b6000801b82036109c5576040517f08c379a00000000000000000000000000000000000000000000000000000000081526004016109bc906121c9565b60405180910390fd5b60006003549050826003819055507ffd69edeceaf1d6832d935be1fba54ca93bf17e71520c6c9ffc08d6e9529f87578184604051610a049291906121e9565b60405180910390a1505050565b6000600260009054906101000a900460ff16905090565b60007f000000000000000000000000000000000000000000000000000000000000000073ffffffffffffffffffffffffffffffffffffffff166370a08231306040518263ffffffff1660e01b8152600401610a839190612221565b602060405180830381865afa158015610aa0573d6000803e3d6000fd5b505050506040513d601f19601f82011682018060405250810190610ac49190612251565b905090565b60066020528060005260406000206000915054906101000a900460ff1681565b7fa49807205ce4d355092ef5a8a18f56e8913cf4a201fbe287825b095693c2177581565b6000600660008373ffffffffffffffffffffffffffffffffffffffff1673ffffffffffffffffffffffffffffffffffffffff16815260200190815260200160002060009054906101000a900460ff169050919050565b7f65d7a28e3265b37a6474929f336521b332c1681b933f6cb9f3376673440d862a610b8d81610f11565b610b9561122a565b3373ffffffffffffffffffffffffffffffffffffffff167f14b994fd89d36a52d69cf4cba0069f74fbe958179c5e61dc3d040a11f2272efd60405160405180910390a250565b600080600084815260200190815260200160002060000160008373ffffffffffffffffffffffffffffffffffffffff1673ffffffffffffffffffffffffffffffffffffffff16815260200190815260200160002060009054906101000a900460ff16905092915050565b6000801b81565b7fa49807205ce4d355092ef5a8a18f56e8913cf4a201fbe287825b095693c21775610c7681610f11565b6004544211610cba576040517f08c379a0000000000000000000000000000000000000000000000000000000008152600401610cb1906122ca565b60405180910390fd5b60007f000000000000000000000000000000000000000000000000000000000000000073ffffffffffffffffffffffffffffffffffffffff166370a08231306040518263ffffffff1660e01b8152600401610d159190612221565b602060405180830381865afa158015610d32573d6000803e3d6000fd5b505050506040513d601f19601f82011682018060405250810190610d569190612251565b905060008111610d9b576040517f08c379a0000000000000000000000000000000000000000000000000000000008152600401610d9290612336565b60405180910390fd5b610de633827f000000000000000000000000000000000000000000000000000000000000000073ffffffffffffffffffffffffffffffffffffffff166110b59092919063ffffffff16565b3373ffffffffffffffffffffffffffffffffffffffff167f46d2e6e71fc567877b817ff3d940571f989d4ee4d40f2b70806d36e738feef6f82604051610e2c9190611cd4565b60405180910390a25050565b610e4182610490565b610e4a81610f11565b610e54838361128d565b505050565b60055481565b7f65d7a28e3265b37a6474929f336521b332c1681b933f6cb9f3376673440d862a81565b7f000000000000000000000000000000000000000000000000000000000000000081565b60007f01ffc9a7000000000000000000000000000000000000000000000000000000007bffffffffffffffffffffffffffffffffffffffffffffffffffffffff1916827bffffffffffffffffffffffffffffffffffffffffffffffffffffffff1916149050919050565b610f2281610f1d61136e565b611376565b50565b610f2f8282610bdb565b61100157600160008084815260200190815260200160002060000160008373ffffffffffffffffffffffffffffffffffffffff1673ffffffffffffffffffffffffffffffffffffffff16815260200190815260200160002060006101000a81548160ff021916908315150217905550610fa661136e565b73ffffffffffffffffffffffffffffffffffffffff168173ffffffffffffffffffffffffffffffffffffffff16837f2f8788117e7eff1d82e926ec794901d17c78024a50270940304540a733656f0d60405160405180910390a45b5050565b60026001540361104a576040517f08c379a0000000000000000000000000000000000000000000000000000000008152600401611041906123a2565b60405180910390fd5b6002600181905550565b61105c610a11565b1561109c576040517f08c379a00000000000000000000000000000000000000000000000000000000081526004016110939061240e565b60405180910390fd5b565b6000826110ab85846113fb565b1490509392505050565b6111368363a9059cbb60e01b84846040516024016110d492919061242e565b604051602081830303815290604052907bffffffffffffffffffffffffffffffffffffffffffffffffffffffff19166020820180517bffffffffffffffffffffffffffffffffffffffffffffffffffffffff8381831617835250505050611451565b505050565b60018081905550565b61114c61136e565b73ffffffffffffffffffffffffffffffffffffffff168173ffffffffffffffffffffffffffffffffffffffff16146111b9576040517f08c379a00000000000000000000000000000000000000000000000000000000081526004016111b0906124c9565b60405180910390fd5b6111c3828261128d565b5050565b6111cf611519565b6000600260006101000a81548160ff0219169083151502179055507f5db9ee0a495bf2e6ff9c91a7834c1ba4fdd244a5e8aa4e537bd38aeae4b073aa61121361136e565b6040516112209190612221565b60405180910390a1565b611232611054565b6001600260006101000a81548160ff0219169083151502179055507f62e78cea01bee320cd4e420270b5ea74000d11b0c9f74754ebdbfc544b05a25861127661136e565b6040516112839190612221565b60405180910390a1565b6112978282610bdb565b1561136a57600080600084815260200190815260200160002060000160008373ffffffffffffffffffffffffffffffffffffffff1673ffffffffffffffffffffffffffffffffffffffff16815260200190815260200160002060006101000a81548160ff02191690831515021790555061130f61136e565b73ffffffffffffffffffffffffffffffffffffffff168173ffffffffffffffffffffffffffffffffffffffff16837ff6391f5c32d9c69d2a47ea670b442974b53935d1edc7fd64eb21e047a839171b60405160405180910390a45b5050565b600033905090565b6113808282610bdb565b6113f75761138d81611562565b61139b8360001c602061158f565b6040516020016113ac9291906125f2565b6040516020818303038152906040526040517f08c379a00000000000000000000000000000000000000000000000000000000081526004016113ee9190612676565b60405180910390fd5b5050565b60008082905060005b8451811015611446576114318286838151811061142457611423612698565b5b60200260200101516117cb565b9150808061143e906126c7565b915050611404565b508091505092915050565b60006114b3826040518060400160405280602081526020017f5361666545524332303a206c6f772d6c6576656c2063616c6c206661696c65648152508573ffffffffffffffffffffffffffffffffffffffff166117f69092919063ffffffff16565b90506000815114806114d55750808060200190518101906114d4919061273b565b5b611514576040517f08c379a000000000000000000000000000000000000000000000000000000000815260040161150b906127da565b60405180910390fd5b505050565b611521610a11565b611560576040517f08c379a000000000000000000000000000000000000000000000000000000000815260040161155790612846565b60405180910390fd5b565b60606115888273ffffffffffffffffffffffffffffffffffffffff16601460ff1661158f565b9050919050565b6060600060028360026115a29190612866565b6115ac9190612048565b67ffffffffffffffff8111156115c5576115c46128a8565b5b6040519080825280601f01601f1916602001820160405280156115f75781602001600182028036833780820191505090505b5090507f30000000000000000000000000000000000000000000000000000000000000008160008151811061162f5761162e612698565b5b60200101907effffffffffffffffffffffffffffffffffffffffffffffffffffffffffffff1916908160001a9053507f78000000000000000000000000000000000000000000000000000000000000008160018151811061169357611692612698565b5b60200101907effffffffffffffffffffffffffffffffffffffffffffffffffffffffffffff1916908160001a905350600060018460026116d39190612866565b6116dd9190612048565b90505b600181111561177d577f3031323334353637383961626364656600000000000000000000000000000000600f86166010811061171f5761171e612698565b5b1a60f81b82828151811061173657611735612698565b5b60200101907effffffffffffffffffffffffffffffffffffffffffffffffffffffffffffff1916908160001a905350600485901c945080611776906128d7565b90506116e0565b50600084146117c1576040517f08c379a00000000000000000000000000000000000000000000000000000000081526004016117b89061294c565b60405180910390fd5b8091505092915050565b60008183106117e3576117de828461180e565b6117ee565b6117ed838361180e565b5b905092915050565b60606118058484600085611825565b90509392505050565b600082600052816020526040600020905092915050565b60608247101561186a576040517f08c379a0000000000000000000000000000000000000000000000000000000008152600401611861906129de565b60405180910390fd5b6000808673ffffffffffffffffffffffffffffffffffffffff1685876040516118939190612a45565b60006040518083038185875af1925050503d80600081146118d0576040519150601f19603f3d011682016040523d82523d6000602084013e6118d5565b606091505b50915091506118e6878383876118f2565b92505050949350505050565b6060831561195457600083510361194c5761190c85611967565b61194b576040517f08c379a000000000000000000000000000000000000000000000000000000000815260040161194290612aa8565b60405180910390fd5b5b82905061195f565b61195e838361198a565b5b949350505050565b6000808273ffffffffffffffffffffffffffffffffffffffff163b119050919050565b60008251111561199d5781518083602001fd5b806040517f08c379a00000000000000000000000000000000000000000000000000000000081526004016119d19190612676565b60405180910390fd5b600080fd5b600080fd5b60007fffffffff0000000000000000000000000000000000000000000000000000000082169050919050565b611a19816119e4565b8114611a2457600080fd5b50565b600081359050611a3681611a10565b92915050565b600060208284031215611a5257611a516119da565b5b6000611a6084828501611a27565b91505092915050565b60008115159050919050565b611a7e81611a69565b82525050565b6000602082019050611a996000830184611a75565b92915050565b6000819050919050565b611ab281611a9f565b8114611abd57600080fd5b50565b600081359050611acf81611aa9565b92915050565b600060208284031215611aeb57611aea6119da565b5b6000611af984828501611ac0565b91505092915050565b611b0b81611a9f565b82525050565b6000602082019050611b266000830184611b02565b92915050565b600073ffffffffffffffffffffffffffffffffffffffff82169050919050565b6000611b5782611b2c565b9050919050565b611b6781611b4c565b8114611b7257600080fd5b50565b600081359050611b8481611b5e565b92915050565b60008060408385031215611ba157611ba06119da565b5b6000611baf85828601611ac0565b9250506020611bc085828601611b75565b9150509250929050565b6000819050919050565b611bdd81611bca565b8114611be857600080fd5b50565b600081359050611bfa81611bd4565b92915050565b600080fd5b600080fd5b600080fd5b60008083601f840112611c2557611c24611c00565b5b8235905067ffffffffffffffff811115611c4257611c41611c05565b5b602083019150836020820283011115611c5e57611c5d611c0a565b5b9250929050565b600080600060408486031215611c7e57611c7d6119da565b5b6000611c8c86828701611beb565b935050602084013567ffffffffffffffff811115611cad57611cac6119df565b5b611cb986828701611c0f565b92509250509250925092565b611cce81611bca565b82525050565b6000602082019050611ce96000830184611cc5565b92915050565b600060208284031215611d0557611d046119da565b5b6000611d1384828501611beb565b91505092915050565b600060208284031215611d3257611d316119da565b5b6000611d4084828501611b75565b91505092915050565b6000819050919050565b6000611d6e611d69611d6484611b2c565b611d49565b611b2c565b9050919050565b6000611d8082611d53565b9050919050565b6000611d9282611d75565b9050919050565b611da281611d87565b82525050565b6000602082019050611dbd6000830184611d99565b92915050565b600082825260208201905092915050565b7f41697264726f702068617320656e646564000000000000000000000000000000600082015250565b6000611e0a601183611dc3565b9150611e1582611dd4565b602082019050919050565b60006020820190508181036000830152611e3981611dfd565b9050919050565b7f416c726561647920636c61696d65640000000000000000000000000000000000600082015250565b6000611e76600f83611dc3565b9150611e8182611e40565b602082019050919050565b60006020820190508181036000830152611ea581611e69565b9050919050565b7f416d6f756e74206d7573742062652067726561746572207468616e2030000000600082015250565b6000611ee2601d83611dc3565b9150611eed82611eac565b602082019050919050565b60006020820190508181036000830152611f1181611ed5565b9050919050565b60008160601b9050919050565b6000611f3082611f18565b9050919050565b6000611f4282611f25565b9050919050565b611f5a611f5582611b4c565b611f37565b82525050565b6000819050919050565b611f7b611f7682611bca565b611f60565b82525050565b6000611f8d8285611f49565b601482019150611f9d8284611f6a565b6020820191508190509392505050565b7f496e76616c6964206d65726b6c652070726f6f66000000000000000000000000600082015250565b6000611fe3601483611dc3565b9150611fee82611fad565b602082019050919050565b6000602082019050818103600083015261201281611fd6565b9050919050565b7f4e487b7100000000000000000000000000000000000000000000000000000000600052601160045260246000fd5b600061205382611bca565b915061205e83611bca565b925082820190508082111561207657612075612019565b5b92915050565b7f43616e6e6f742072656e6f756e63652061646d696e20726f6c65000000000000600082015250565b60006120b2601a83611dc3565b91506120bd8261207c565b602082019050919050565b600060208201905081810360008301526120e1816120a5565b9050919050565b7f446561646c696e65206d75737420626520696e20746865206675747572650000600082015250565b600061211e601e83611dc3565b9150612129826120e8565b602082019050919050565b6000602082019050818103600083015261214d81612111565b9050919050565b60006040820190506121696000830185611cc5565b6121766020830184611cc5565b9392505050565b7f4d65726b6c6520726f6f742063616e6e6f74206265207a65726f000000000000600082015250565b60006121b3601a83611dc3565b91506121be8261217d565b602082019050919050565b600060208201905081810360008301526121e2816121a6565b9050919050565b60006040820190506121fe6000830185611b02565b61220b6020830184611b02565b9392505050565b61221b81611b4c565b82525050565b60006020820190506122366000830184612212565b92915050565b60008151905061224b81611bd4565b92915050565b600060208284031215612267576122666119da565b5b60006122758482850161223c565b91505092915050565b7f41697264726f7020686173206e6f7420656e6465642079657400000000000000600082015250565b60006122b4601983611dc3565b91506122bf8261227e565b602082019050919050565b600060208201905081810360008301526122e3816122a7565b9050919050565b7f4e6f20746f6b656e7320746f207265636f766572000000000000000000000000600082015250565b6000612320601483611dc3565b915061232b826122ea565b602082019050919050565b6000602082019050818103600083015261234f81612313565b9050919050565b7f5265656e7472616e637947756172643a207265656e7472616e742063616c6c00600082015250565b600061238c601f83611dc3565b915061239782612356565b602082019050919050565b600060208201905081810360008301526123bb8161237f565b9050919050565b7f5061757361626c653a2070617573656400000000000000000000000000000000600082015250565b60006123f8601083611dc3565b9150612403826123c2565b602082019050919050565b60006020820190508181036000830152612427816123eb565b9050919050565b60006040820190506124436000830185612212565b6124506020830184611cc5565b9392505050565b7f416363657373436f6e74726f6c3a2063616e206f6e6c792072656e6f756e636560008201527f20726f6c657320666f722073656c660000000000000000000000000000000000602082015250565b60006124b3602f83611dc3565b91506124be82612457565b604082019050919050565b600060208201905081810360008301526124e2816124a6565b9050919050565b600081905092915050565b7f416363657373436f6e74726f6c3a206163636f756e7420000000000000000000600082015250565b600061252a6017836124e9565b9150612535826124f4565b601782019050919050565b600081519050919050565b60005b8381101561256957808201518184015260208101905061254e565b60008484015250505050565b600061258082612540565b61258a81856124e9565b935061259a81856020860161254b565b80840191505092915050565b7f206973206d697373696e6720726f6c6520000000000000000000000000000000600082015250565b60006125dc6011836124e9565b91506125e7826125a6565b601182019050919050565b60006125fd8261251d565b91506126098285612575565b9150612614826125cf565b91506126208284612575565b91508190509392505050565b6000601f19601f8301169050919050565b600061264882612540565b6126528185611dc3565b935061266281856020860161254b565b61266b8161262c565b840191505092915050565b60006020820190508181036000830152612690818461263d565b905092915050565b7f4e487b7100000000000000000000000000000000000000000000000000000000600052603260045260246000fd5b60006126d282611bca565b91507fffffffffffffffffffffffffffffffffffffffffffffffffffffffffffffffff820361270457612703612019565b5b600182019050919050565b61271881611a69565b811461272357600080fd5b50565b6000815190506127358161270f565b92915050565b600060208284031215612751576127506119da565b5b600061275f84828501612726565b91505092915050565b7f5361666545524332303a204552433230206f7065726174696f6e20646964206e60008201527f6f74207375636365656400000000000000000000000000000000000000000000602082015250565b60006127c4602a83611dc3565b91506127cf82612768565b604082019050919050565b600060208201905081810360008301526127f3816127b7565b9050919050565b7f5061757361626c653a206e6f7420706175736564000000000000000000000000600082015250565b6000612830601483611dc3565b915061283b826127fa565b602082019050919050565b6000602082019050818103600083015261285f81612823565b9050919050565b600061287182611bca565b915061287c83611bca565b925082820261288a81611bca565b915082820484148315176128a1576128a0612019565b5b5092915050565b7f4e487b7100000000000000000000000000000000000000000000000000000000600052604160045260246000fd5b60006128e282611bca565b9150600082036128f5576128f4612019565b5b600182039050919050565b7f537472696e67733a20686578206c656e67746820696e73756666696369656e74600082015250565b6000612936602083611dc3565b915061294182612900565b602082019050919050565b6000602082019050818103600083015261296581612929565b9050919050565b7f416464726573733a20696e73756666696369656e742062616c616e636520666f60008201527f722063616c6c0000000000000000000000000000000000000000000000000000602082015250565b60006129c8602683611dc3565b91506129d38261296c565b604082019050919050565b600060208201905081810360008301526129f7816129bb565b9050919050565b600081519050919050565b600081905092915050565b6000612a1f826129fe565b612a298185612a09565b9350612a3981856020860161254b565b80840191505092915050565b6000612a518284612a14565b915081905092915050565b7f416464726573733a2063616c6c20746f206e6f6e2d636f6e7472616374000000600082015250565b6000612a92601d83611dc3565b9150612a9d82612a5c565b602082019050919050565b60006020820190508181036000830152612ac181612a85565b905091905056fea2646970667358221220215a5bd3246260940e0ed1a40ffdca4d36ba54eeb752818d5d02b1b5d3075a0a64736f6c63430008130033",
  "linkReferences": {},
  "deployedLinkReferences": {}
}